:1020000000800020618100004B8100004B810000B6
:1020100000000000000000000000000000000000C0
:102020000000000000000000000000004B810000E4
:1020300000000000000000004B810000B58100009E
:102040004B8100004B8100004B8100004B81000060
:10205000797F00004B8100004B8100004D81000022
:102060004B8100009D2A00004B8100004B81000045
:102070004B8100004B810000D96000004B810000C3
:102080004B8100004B8100004B8100004B81000020
:10209000000000004B8100004B8100004B810000DC
:1020A0004B8100004B8100004B8100004B81000000
:1020B0000000000010B5064C2378002B07D1054B1B
:1020C000002B02D0044800E000BF0123237010BDA4
:1020D000800100200000000004DF000008B5084B6C
:1020E000002B03D00748084900E000BF07480368F9
:1020F000002B03D0064B002B00D0984708BDC046EC
:102100000000000004DF00008401002078010020AE
:10211000000000000160704710B51D49041C0068F4
:1021200005F022F920681B4905F01EF920681A49BC
:1021300005F01AF92068194905F016F920681849C0
:1021400005F012F92068174905F0F4F820681649DF
:1021500005F00AF92068154905F0ECF820681449E3
:1021600005F002F92068134905F0E4F820681249E7
:1021700005F0E0F82068114905F0F6F820681049EC
:1021800005F0F2F820680F4905F0EEF810BDC046E2
:1021900000D1000010D100001FD100008ED100003E
:1021A000C9D10000F5D100003AD200005AD2000097
:1021B00096D20000ABD200000AD3000077D3000013
:1021C000C6D30000FDD30000F8B5041C0E1C006847
:1021D0002349171C05F0C8F800252068B5423BDAF2
:1021E000204905F0A7F8291C0A22206805F015F9F6
:1021F0001D49206805F09EF8291C0A22206805F078
:102200000CF91A49206805F095F8291C0A22206863
:1022100005F003F91649206805F08CF8AB00F95871
:102220000A22206805F0F9F81249206805F082F8C2
:10223000291C0A22206805F0F0F80F49206805F0F3
:1022400079F8291C0A22206805F0E7F820680B4974
:1022500005F08AF80135C0E7094905F085F8F8BDB1
:102260000CD400004FD4000061D4000081D40000E1
:1022700091D400009AD40000DAD40000EBD400001E
:1022800004D5000070B5041C0E1C00681049151C14
:1022900005F06AF820680F4905F066F820680E49D5
:1022A00005F062F820680D4905F05EF82A1C311C23
:1022B000201CFFF789FF2068094905F055F82068C0
:1022C000084905F051F82068074905F04DF870BD40
:1022D00000D1000010D100001FD100008ED10000FD
:1022E00077D30000C6D30000FDD3000007B500235C
:1022F00000930348191C1A1C04F0A8FF07BDC04630
:102300009C01002010B54021041C03F06BFD201C33
:1023100003F01AFE201C10BD10B5041C081C06F0AA
:1023200021FE011C201C03F0BFFD10BD70B5151C63
:102330000E1C041C0549064805F016F8F1B2ABB2B4
:10234000201C002203F054FD70BDC0460DD50000D6
:10235000DC0700207FB5041C1A4901A805F071FEB6
:1023600001A9201C05F0ECFE051C01A805F022FEC9
:10237000691D201C05F0C6FE08F0FBFC1249051C77
:1023800001A805F05EFE01A9201C05F0D9FE061C7F
:1023900001A805F00FFE711D201C05F0B3FE08F02A
:1023A000E8FC0A4CAB001851094B291C021C1868A8
:1023B000FFF7BCFF074B08481968221CFFF762FFB4
:1023C0007FBDC046D4D4000037D50000D80100201E
:1023D00018020020D4010020B80100207FB5041CA1
:1023E000224901A805F02DFE01A9201C05F0A8FE38
:1023F000051C01A805F0DEFDA91D201C05F082FECC
:1024000008F0B7FC1A4D1B49286001A805F019FE19
:1024100001A9201C05F094FE061C01A805F0CAFDC8
:10242000711D201C05F06EFE08F0A3FC124B011C70
:102430001868FFF771FF01A8104905F002FE01A915
:10244000201C05F07DFE061C01A805F0B3FD311C23
:102450000831201C05F056FE08F08BFC084B29685B
:102460001860084A0848FFF70DFF7FBD3DD5000002
:10247000D401002044D50000180200204AD50000F5
:10248000D0010020D8010020B801002037B5174C3A
:102490001749201C04F04EFF164D281C02F0D3FFF4
:1024A000011C201C04F060FF281C02F0CAFF011C64
:1024B000684604F0D9FE201C0F4904F03BFF694632
:1024C000201C04F05BFF281C02F0CAFF0B49051C0E
:1024D000201C04F02FFF291C0A22201C04F07FFF7F
:1024E000201C074904F040FF37BDC046DC07002030
:1024F00071D500004806002053D5000058D50000D3
:102500005ED5000013B50023191C00931A1C08485F
:1025100004F09CFE074C201C03F00CFA211C06481A
:10252000FFF7F8FD5021054803F0F2FA13BDC0464D
:10253000A4010020BC010020B8010020AC01002053
:1025400070B5082005F088FE041CFFF7DBFE154B74
:1025500096211C60144C8901201C03F099FE201C5C
:1025600003F098FE0028FAD0104D2B68032B12D0F0
:10257000201C0F4904F0DEFE0E4E201C311C04F01E
:10258000F3FE311C0C4A0D4802F0EAFE28600C48AC
:1025900005F024FEE8E70B4803F00CFBFFF776FF9D
:1025A00070BDC04618020020DC0700201C0200207D
:1025B00063D500002CD500001FD500004806002080
:1025C00010270000AC010020F0B5464D8BB005ACE3
:1025D000291C02A805F035FD201C4349002203F008
:1025E000EFFA4248069B4360A3688360E368C360D8
:1025F000237C037403F0F8F800286ED03C483D4972
:1026000004F0B2FE0126394D281C03F039F90028E8
:1026100058D0281C03F0FEF80028F4D0281C03F042
:10262000D3F8C0B20190019902A805F061FD0199AB
:102630002F4803F09BFD3049201C05F002FD211CB2
:1026400002A805F07DFDC7173F1AFF17201C05F0F3
:10265000B1FC3740201C002F06D002A905F014FD64
:10266000201CFFF7BBFE16E0244905F0EAFC02A897
:10267000211C05F065FDC7173F1AFF17201C3740C6
:1026800005F098FC002F0DD0201C02A905F0FCFCE1
:10269000201CFFF75FFE201C05F08CFC281C03F0BB
:1026A000ABF80FE0019B0A2B05D1002EAAD01448ED
:1026B000FFF732FDF2E7019B0D3B5A4253415B426B
:1026C0001E40A0E7012005F089FD064902A805F09B
:1026D000E5FC07480B4904F047FE02A805F06AFC38
:1026E0000BB0F0BD4ADB0000AC010020BC010020B3
:1026F000DC07002078D500003DD50000D4D40000D0
:10270000B801002083D50000002070477047F8B55D
:10271000051C0F1C161C0024B44208D02B68395D20
:102720001B68281C9847002801D00134F4E7201CBE
:10273000F8BD7047031CFC33196ADA69914203D073
:102740001B6AC018007E01E0012040427047031C54
:10275000FC33D8691B6AC01A01D50130FF307047BD
:10276000F7B50193FA239B008360134B8026002565
:1027700076000833041C0F1C4560291C009203607E
:10278000321C183008F068FB231C9022FC335200E6
:10279000DD61A0181D62321C291C08F05DFB872238
:1027A0009200A3185D60019A9D60009B2761A5754A
:1027B000201C23756275FEBD98D5000070B50D49CB
:1027C000041C006905F0BEF8206904F053FF1826C8
:1027D000207D331C4343084D0821EB18595605F062
:1027E00027FF607D08214643AD19695605F020FF9B
:1027F00070BDC046A086010060D700008A238722F2
:102800009B009200C154831800225A609A600123F1
:1028100083757047031CFC335A6810B501329C68FD
:10282000D2B2A24202D05C6801555A6010BDF7B521
:1028300001930023041C151C181C9A4231D0221C41
:10284000FC32D36120691362012204F04FFF00289B
:1028500025D0206904F0B9FF271C1837011C381C4B
:10286000FFF7D8FF01262069AE420ED004F01EFF0C
:102870000221206904F024FF206904F0A6FF011C56
:10288000381CFFF7C7FF0136EDE704F007FF019B97
:10289000002B05D02069032104F012FF00E0051C85
:1028A000E8B2FEBD08B50123FFF7C1FF08BD10B5B2
:1028B000827D00239A420DD08724A4000219546817
:1028C00092680134E4B2944204D02130FF30FFF723
:1028D000A1FF0123181C10BD031CFC3399685A6822
:1028E000914206D09A68805C9A680132D2B29A60AE
:1028F00001E001204042704770B500228A238275B2
:102900009B00041C0E1CC15C006904F0EFFE002853
:1029100005D12069032104F0D3FE022523E0902392
:102920005B00E01887239B00E21851689368CB1A7C
:1029300001D50133FF33002B0ED02569FFF7CCFF03
:10294000C1B2281C04F001FF0028E8D1206903214E
:1029500004F0B6FE032506E01D1C002E03D02069FE
:10296000032104F0ADFE281C70BD08B50121FFF75E
:10297000C3FF08BD08B51830FFF7AEFF08BD38B576
:10298000041C006904F0FFFE002800D184E02069E7
:1029900004F007FF00280ED1206904F00CFF002886
:1029A0001FD0206904F002FF00281AD0206904F02B
:1029B00007FF002815D1206904F078FE2069032163
:1029C00004F07EFE8C239B00E558002D04D0236884
:1029D000201C1B699847A847FC340023E36123624D
:1029E0005AE0206904F0E7FE031C2069002B19D08F
:1029F00004F05CFE2069032104F062FE206904F00B
:102A0000DFFE002848D087229200A31800225A60D7
:102A10009A600123A3758B239B00E35893423BD01C
:102A2000984739E004F0B8FE002835D0206904F05A
:102A3000C7FE002816D087239B00E21851689368D0
:102A4000CB1A01D50133FF33FF21002B05D0902293
:102A50005200A018FFF740FFC1B2206904F086FEC3
:102A6000A07519E0231CFC33DA691B6A0132D2B26B
:102A700020699A4202D104F011FE09E004F0A5FE9B
:102A8000011C201C1830FFF7C5FE206904F00EFE63
:102A90002069032104F014FE38BD000008B5024887
:102AA000FFF76DFF08BDC0462002002008B50348AF
:102AB00003490B220C23FFF753FE08BD2002002020
:102AC000C8070020014B083303607047C0D50000E1
:102AD00010B5044B041C0833036005F0C1FB201C37
:102AE00010BDC046C0D5000010B5094B0B210833FE
:102AF0000360031C0022FF2401391A715C719A8162
:102B00001A625A629A6228339142F3D110BDC046CC
:102B1000C0D5000010B5041C081C111C1A1C00F0C4
:102B2000D3FC002806DD282343430122E3181A7151
:102B3000FF225A7110BD000070B5061C0D1C081C48
:102B4000111C1A1C00F034FD002816DB28246C43ED
:102B500004233419237105F03BFB061C2379042B55
:102B600005D105F035FB0D4B801B984212D9217918
:102B700001220023052903D02271002460B270BD18
:102B8000A381141C062DF9DD281C191C1A1C00F049
:102B900053FEF3E7002001F0C1FADFE7CF070000A2
:102BA00070B5061C0D1C081C111C00F033FD00281C
:102BB00015DB28246C4306233419237105F008FB28
:102BC000051C2379062B05D105F002FB074B401BA2
:102BD000984207D923790120072B01D020710020CA
:102BE00040B270BD002001F099FAEAE7CF0700007B
:102BF00013B504AC01CC20880090081C111C1A1CD1
:102C0000049B00F06FFE16BDF7B5071C0D1C161CCB
:102C1000081C111C1A1C00F021FD002812DB2824BE
:102C20006C4302233C19237105F0D2FA01902379F9
:102C3000022B0AD105F0CCFA019A114B801A984266
:102C400019D902E0002358B2FEBD22790023032ADD
:102C500002D001222271F6E728216943A3817288FC
:102C600076687F187A82191C1A1C7E61281C00F075
:102C700077FD0123E7E7002001F050FAD7E7C046CF
:102C80001F4E000038B5041C00200D1C01F046FA50
:102C900028235D4364192079033843425841C0B268
:102CA00038BD38B5041C00200D1C01F037FA28236C
:102CB0005D4364192079073843425841C0B238BD9A
:102CC00038B5041C00200D1C01F028FA28210B1C2B
:102CD0006B43E3181A79032A02D00020052A05D194
:102CE0004D4364190C22985EA36AC01838BD28238E
:102CF0005A4310B58918041C496904F0B5FA201C20
:102D000010BD282359434018408A7047F8B5071C66
:102D100000200D1C1C1C161C01F000FA28236B431C
:102D2000FF183B79032B09D0002010E00E30FBD1B7
:102D3000074B18780028F7D101F0F0F9A2B2281C4F
:102D4000311C002300F0C2FC0028EFDB201CF8BD82
:102D50001E060020F8B50D1C28246C43061C3419EF
:102D6000002001F0DBF92379032B01D0052B0AD1D8
:102D70000C22A35E002B06DD0022A281101C111C78
:102D8000012301F02BF8002323712827FF2363710F
:102D90003B1C6B43F318186A002801D008F030F888
:102DA0006F430023F61933627362B362281CA38158
:102DB00000F012FDF8BD28235A438018407940B234
:102DC000411A48424841704770B5041C00200E1C4F
:102DD00001F0A4F9221C002305215156DDB2B142B5
:102DE0000FD1117908290CD128225343E418032369
:102DF00023710023A38168B2191C1A1C00F0B0FCD7
:102E000004E001332832072BE6D1FF2568B270BDFC
:102E1000F7B528274F43C7193A6A3E1C041C0D1CFE
:102E200018360192002A07D1B820C00007F0DEFF53
:102E3000019BB060F060BB6228210E1C6E43A61996
:102E40000C22B35EB8221F1CD200934200DD171C77
:102E50004D43FB1A641959424B41DBB2BAB2B06818
:102E6000216A00F0BBFF251C00231835984209D1C8
:102E7000AB68EB60A762B268D319B360B389DF1B9C
:102E8000B7810123181CFEBD70B50C1C28266643B3
:102E9000051CAE19002001F041F93379032B04D051
:102EA000052B02D0012040421CE0281C211CFFF70A
:102EB00007FF0028F6D028236343EB189B6A002BFA
:102EC00005D028235C432D196B6A18780AE00C2280
:102ED000B35E002BF5D0281C211CFFF799FF0028BA
:102EE000EFD1DFE770BDF0B5051C87B000200C1CEA
:102EF0000193059201F012F928236343EB18049320
:102F00001B79032B03D0052B01D000205DE0281C8A
:102F1000211CFFF7D5FE0028F7DD0199814200DD75
:102F2000019000220292019A002A10D028236343C4
:102F3000EB189B6A002B11D104990C23CB5E002B5C
:102F40000CD0281C211CFFF763FF002806D1282382
:102F50006343ED18AB6A002B23D035E02822131C05
:102F60006343EB189B6A019E9E4200DD1E1C624378
:102F7000AA18171C516A03920598321C07F04AFFE1
:102F80007A6A93197B62039B996A8A1B9A620299F7
:102F9000059A019B92199B1B891905920193029135
:102FA000C1E7049902980C23CB5E002B0DD1201CA5
:102FB000191C1A1C062C02DC00F0D2FB01E000F008
:102FC0003BFC002001F0AAF8029807B0F0BD70B5F4
:102FD000041C501E08286FD805F014FC05106E2143
:102FE0003C466E6E4600002B0AD01B785BB2002B6D
:102FF00006D1282359430523641805E0002B05D189
:103000002823594301236418237155E01B785BB2D0
:10301000002BF5D12823594307236418F4E7002B2C
:103020004AD000201856002846DB282250430825A5
:1030300020180571002018565043201841710021B6
:10304000595604334A43A418103407CB07C41B68ED
:10305000236031E0002BD3D05B787F2BD0D828239E
:10306000594303236418CFE7988802B2002A03DC8F
:10307000201CFFF76FFE1FE028224A43A218157993
:10308000032D01D0052D11D11D6890819560062971
:1030900008DD28224A43A2181032083361CB61C2EE
:1030A0001B681360201CFFF7B3FE05E00020011C25
:1030B000021C012300F092FE70BD000038B5051C13
:1030C0000C1C131C291C0248221CFFF780FF38BD72
:1030D0005C04002013B50023191C1A1C0093064839
:1030E00004F0B4F8054C201CFFF7FEFC201C04493A
:1030F000044A07F037FE13BD540400205C0400208E
:10310000C52A00000000002073B5061C01F054F928
:10311000294B0005000D002498424BD9274801A9EE
:1031200001F006FB041E45D1019B254D25492B408E
:1031300019432248019101F0FFFA2348211C002E77
:1031400020D001F0F9FAAB21204801F0F5FA012175
:103150001F4801F0F1FA211C1E4801F0EDFA1E484B
:10316000812101F0E9FA1D4801F0DEFA0128FAD1C7
:10317000019B80211D40490229431048019101F023
:10318000DBFA17E001F0D8FAB921104801F0D4FABF
:1031900001210F4801F0D0FA211C0E4801F0CCFAB1
:1031A0000D48812101F0C8FA0C4801F0BDFA012850
:1031B000FAD1DDE760B276BD9F0300001014000075
:1031C000FF8F88F800101101080201000C020100B5
:1031D000140201001C020100040201001802010097
:1031E000F0B50F1C9BB0141C412801D0542816D1F7
:1031F00009AD201C291C0422002300F0EFFD00284B
:1032000000D02CE16B7805AA1370964B1968002941
:1032100000D124E100201B682856012117E0422834
:1032200017D109AD101C291C0422002300F0D6FD83
:10323000002800D013E16B7805AA1370894B196838
:10324000002900D10BE100201B6828560221984775
:1032500005E143283FD105AD101C291C0C22002399
:1032600000F0BCFD002800D0F9E0697A48B20028DF
:103270001FDB0823EB567C4A1B01D318DE7A0001C2
:103280001318F6B2DE7201269E726C89083CA4B255
:103290001C81764B1C88A419A4B21C801C88002CAD
:1032A00003D11C88A419A4B21C801B8810189BB2DF
:1032B000C38009AA0223117093806B886968D38048
:1032C000684B91601968002900D1C8E008201B688C
:1032D00028560421BBE7442801D04B2821D109AD51
:1032E000201C291C0422002300F078FD002800D0B7
:1032F000B5E0287805AA10706B785370002B07D1C1
:10330000698843B2584C08391B0189B2E318198106
:10331000544B1968002900D1A1E01B6840B2052177
:1033200095E74A2812D1101C09A94422002300F075
:1033300055FD002800D092E04D4B1A68002A00D1BC
:103340008DE01B68199909A8984788E0462803D0A2
:10335000482803D04D2847D1062600E0092605ADB0
:103360001022201C291C002300F038FD021E76D1FB
:10337000EB890C20019328563B490301CB1800939D
:103380001A736B89298903938C4669886D6809AB28
:10339000DD60009D5981E988019D8D421CD1614607
:1033A0000DB23049002D0BDDBD4209DA314D012748
:1033B0002F7065469D80039DDA8064191C6003E0D0
:1033C00062469A80002209920A68002A47D00C6857
:1033D0001A1C311CA04742E0102F40D9101C111CB0
:1033E000012300F0FBFC3AE0452803D0472803D036
:1033F0004C281ED1072600E0082609AD201C291CF8
:103400000822002300F0EAFC002828D128786B88E5
:1034100005AA40B2144CA98813800301E318DB8885
:1034200099421CD10F4B1968002918D01B68311C18
:103430000DE7522813D109AD101C291C14220123B9
:1034400000F0CCFC00280AD10B4B696819601A689F
:10345000002A04D01B682868A9682A7C98471BB0FA
:10346000F0BDC046200F0020700E00201C0600207A
:10347000280F00201E060020240F002038B5094D1B
:103480002C78E4B2002C0CD10748211CB02201F0AA
:1034900074FD0220054900F0CDFC01232B70044B84
:1034A0001C8038BD1A060020700E0020E13100009B
:1034B0001C060020024B1860024B19607047C04682
:1034C000200F0020280F0020F0B5171C89B002281B
:1034D0005FD101291AD10726304D07212B782C788E
:1034E000DBB2287805932E4B24010130E41805F057
:1034F00037FAC9B22970A37A002B02D1059BDDB23D
:103500001EE0013EF6B2002EE6D142E0022940D193
:103510000422244B24491D781C78032024016418BC
:103520001978EDB2013101401970A37A002B02D154
:103530000735EDB204E0013AD2B2002AE9D128E021
:103540006BB2002B26DB1022201C002101F015FDA0
:103550000123A372154B1A88013292B21A801A887D
:10356000002A03D11A88013292B21A801B889BB2BA
:10357000E380FB070ED52123E37207AA0023157011
:1035800050210093019302930220042300F0AEFA2D
:1035900000E0FF2568B209B0F0BDC0461906002062
:1035A000700E002018060020E00E00201C060020EF
:1035B000F0B589B0002927D0002825DB144F06017B
:1035C000BC19A37A0834DBB2012B1DD1002A1BD011
:1035D000E27854251A4200D1412505AC2072082218
:1035E000201CBE1901F0C0FCF38802206381002377
:1035F000009301930293291C221C0C2300F076FAFD
:10360000002802D0F72000E0FA2040B209B0F0BD57
:10361000700E00207FB5002819DB0F4A0301D31874
:103620001A1C08329278012A11D105AA1070517023
:10363000DB880220538000230093019302934221F0
:10364000042300F053FA002802D0F72000E0FA200B
:1036500040B207B000BDC046700E0020F0B5141C8B
:1036600089B000282CDB00292AD0174F0601BB198E
:103670009A7A0833D2B2012A22D1002C20D0DC78E9
:103680004425A446674605AC174202D0DB784B259B
:10369000637220720822201C01F066FC0A4F02208F
:1036A000BE19F388291C63810023009301930293C0
:1036B000221C0C2300F01AFA002802D0F72000E0A8
:1036C000FA2040B209B0F0BD700E0020F0B50D1C1C
:1036D00089B0002835DB002933D0AF23DB009A42C4
:1036E0002FD81A4906018C19231C08339B78012B0B
:1036F00027D104AB18705A80E4889C8144240628A2
:1037000000DC50248919CE7A4520F7070AD50C89A8
:103710000F49A4B208680F49884201D94C2001E042
:103720004C20552480210143019200951A1C0294DB
:103730001023022000F0DAF90023984202D0064B51
:1037400000E0064B18B209B0F0BDC046700E002074
:103750002C0600203F130000F2FF0000FAFF0000DB
:10376000F0B587B000282CDB184F05017C19A67A2C
:10377000A446F6B20834012E23D1E95161468A806D
:103780002179002291421DD12671E2784D213242E9
:1037900000D14621002B01D101235B4204AA107104
:1037A00004937D19EB880024D380022000940194B7
:1037B0000294082300F09AF9221CA04202D0044A85
:1037C00000E0044A10B207B0F0BDC046700E002001
:1037D000F2FF0000FAFF0000F0B587B0002824DBFC
:1037E000144E05017419A77A211CFFB20831012F6C
:1037F0001BD105AA1070E388538000238B70E380EF
:10380000C8784E21384200D1492100930193029398
:103810000220042300F06AF9041E00D0F724701976
:103820000021102201F0A9FB00E0FA2460B207B0E9
:10383000F0BDC046700E0020F0B589B0049200289B
:103840002EDB194A050157193C1C0834A67894460A
:10385000F6B2012E24D1A278002A01D1002320E063
:103860006246A950049ABA802279002AF6D12671BC
:10387000002B01D101235B4206AA10710693654417
:10388000EB880024D3800220082300940194029442
:10389000482100F02BF9231CA04202D0034B00E08A
:1038A000034B18B209B0F0BD700E0020F2FF00000B
:1038B000FAFF00001FB5041C01F067FBC3B2402BE8
:1038C0000BD80021C0B2431C009101910291221C2F
:1038D0004A21022000F00AF900E0FA2040B204B0C8
:1038E00010BD0000F0B599B01EAC248805940028E6
:1038F0007DDB002B7BD0404E050174190494083405
:10390000A778FFB2012F72D102295AD106286EDCA6
:10391000E6783E426BD0012A08D11868E378002887
:1039200002D01943E1704AE08B430BE0032A0BD12C
:103930001868E2781023002802D01343E3703EE0B9
:103940009A43131CE37053E0042A0FD11B68002B29
:1039500005D0294F40227D19EB7A134304E0264A13
:103960005519EB7A40229343EB7228E0022A3ED1AC
:10397000059C3F2C3BD8204E06AC20707519EA8878
:10398000059F191C00266280022508A84022657048
:10399000079701F0E9FA009601960296281C51213A
:1039A000221C482300F0A2F8033008D100960196AB
:1039B0000296281CD121221C482300F097F80020F1
:1039C00016E01B6806AC6271049A20710693D388D6
:1039D0000220E38000230093019302934F21221CD5
:1039E000082300F083F8002802D0F72000E0FA2036
:1039F00040B219B0F0BDC046700E0020024BDA781C
:103A00000132D2B2DA7070472C0F002070470000EC
:103A100007B50B4A002313700A4A0120937001F086
:103A2000ABFB094801A900F083FE002806D1019BE9
:103A3000022119430448019100F07EFE40B20EBD00
:103A40001E0600202C0F00207010000010B50B4C3B
:103A50000020A37883420FD16378834205D0637836
:103A600000200133DBB2637006E02378002BF6D030
:103A700000F027FD0028F2D040B210BD2C0F00202E
:103A8000044B5A78002A03D05A78013AD2B25A70BD
:103A9000002070472C0F002008B5094B5A78002AE7
:103AA00003D05A78013AD2B25A705A780020824232
:103AB00004D11B78834201D000F0D4FC40B208BD91
:103AC0002C0F002010B5064C0021201C282201F0EC
:103AD00054FA044801F03EFB034B0020E36110BDA3
:103AE0002C0F0020FD3900000D3A0000F0B58BB01E
:103AF0001D1C10AB0F1C02CB02921B887F2201936E
:103B000012AB1B883A40039306AB5A700822187018
:103B10005A80061C5A88002904D001998A180399F2
:103B20008A1800E0AA1892B25A80FFF78FFF031C90
:103B3000002B00D095E06A460893D3820793079B39
:103B40003F021E430796079B06AE1F430797079A3F
:103B5000738845481B0413430793079900F0ECFD55
:103B6000041E00D07AE00790079B022213430793BC
:103B700007993E4800F0E0FD041E6FD16B460890A7
:103B8000D8826C4616342288394B9A4205D8374879
:103B900007A900F0CDFD002803D0089B002B1BD106
:103BA00058E0F4232288FF339A4203D90120238866
:103BB00001F082FA079F02231F4007D12D4808A970
:103BC00000F0B6FD041EE8D0089747E06B46DA8A9D
:103BD000013292B2DA82D4E7089B311C09937388D0
:103BE00008229BB27380099800F0CAFD041E35D1EB
:103BF000099B029908330993002908D009982A1CC7
:103C000000F0BEFD041E29D1099BEB180993109A00
:103C1000002A0FD00399099B4D1BED180995111C23
:103C20000998019A00F0ACFD041E17D1099B019A76
:103C3000D3180993089B02229B000793079B0E4809
:103C400013430793079900F077FD041E06D1FFF791
:103C500023FF06E0FFF720FFFD2002E0FFF710FF43
:103C6000201C40B20BB0F0BD8C100000781000009A
:103C7000E7030000000415006C100000F0B5534B82
:103C800087B01A78002A04D1514BDA781D1C002A1B
:103C900001D1002696E0DA78013AD2B2DA704D48C6
:103CA00003A900F045FD061E00D083E0039B01221E
:103CB000134200D17EE001F05FFA039B012293439F
:103CC00003930399434800F037FD061E72D1012388
:103CD000AB70039BFE269B041B0D01936AD00590DD
:103CE00005A93D4800F024FD071E0ED1019A059854
:103CF00004AC6860211CAA60042200F021FD6388E6
:103D0000071C9BB2061C638003D0012001F034FA2B
:103D10004FE06388019A934208D06388D31A042B3A
:103D200004DD012001F028FAFA2742E02378012B74
:103D300004D1EB68002B31D0EB6827E02378022B0D
:103D400004D12B69002B29D02B691FE02378042B89
:103D500004D16B69002B21D06B6917E02378062B07
:103D600004D12B6A002B19D02B6A0FE02378072B84
:103D700004D1AB69002B11D0AB6907E02378FA2797
:103D8000052B16D16B6A002B08D06B6A60786188AE
:103D9000059A0839C0B289B2083298470B4A13789D
:103DA000002B07D1AB78002B04D0FFF731FE071EA4
:103DB00000D03E1C054A1378002B03D1002E00D002
:103DC0006DE761E770B207B0F0BDC0461E06002087
:103DD0002C0F00207010000084100000F8B51D1C8E
:103DE000002803D0002901D0002A02D1002D18D1CB
:103DF0001AE00F4CA3689A4216D86368984213D30E
:103E00006368A7688618FB189E420DD800F098FCDE
:103E100000280AD16368A268D318B34201D0002DEC
:103E200003D0FFF7F5FD00E0F42040B2F8BDC04636
:103E30002C0F0020013800B5F423062814D80B4BB2
:103E400004F0E0FC06040A08100C0E0019610AE0F8
:103E5000D96008E0596106E0D96104E0196202E026
:103E6000996100E05962002358B200BD2C0F002078
:103E70007FB5002305900520009301930293011C58
:103E800005AA0423FFF732FE07B000BD70B5041C7D
:103E90009AB0151C2C287BD01B2804D1101C01A91A
:103EA0000822002384E0062803D1101C01A9302237
:103EB0007DE00E2800D1A1E0322815D1504B102210
:103EC0001968504B994200D91422281C01A90023DB
:103ED000FFF784FF002800D090E04B4B1B68002BBD
:103EE00000D18BE032206CE02F2808D101A80021FE
:103EF000642201F042F8281C01A96422D1E7342889
:103F00000DD1101C01A904220023FFF767FF011E39
:103F100074D13D4B1B68002B70D0201C6DE0112824
:103F200014D13A4A002301AC1370281C211C04222E
:103F3000FFF754FF002861D1354B22781A70324BBD
:103F40001B68002B5AD01120211C56E013280DD1DC
:103F5000101C01A92C220023FFF740FF00284DD19F
:103F6000294B1B68002B49D013202AE004280DD1CF
:103F7000101C01A904220023FFF730FF00283DD1C7
:103F8000214B1B68002B39D004201AE0652803D18F
:103F9000281C01A9042284E7092803D1101C01A9C7
:103FA000642204E02A280ED1101C01A90422012356
:103FB000FFF714FF002821D1134B1B68002B1DD0E5
:103FC000201C01A919E0202818D101AE101C311CB9
:103FD00008220023FFF702FF00280FD1281C083019
:103FE000B28801990123FFF7F9FE002806D1064B9C
:103FF0001B68002B02D0201C311C98471AB070BDE2
:104000002C0600204F13000020060020240600206C
:104010002506002010B5041E3BD000F0B6FF002896
:1040200037D0201C00F0B1FF202832D8A31CDB7F42
:10403000013B0D2B2DD8231C41331B78002B09D1BC
:10404000231C42331B78002B04D1231C43331B78E1
:10405000002B1ED0231C3F331B78012B01D10020E5
:1040600021E0032B17D1E31CDB7F013B032B10D88E
:10407000231DDB7F102293430A2B0AD12434201CFA
:1040800000F083FF002804D0201C00F07EFF1A28D7
:10409000E5D9F42007E0022BFBD10434E37F083B91
:1040A000382BDCD9F5E740B210BD000070B58CB0FC
:1040B0006B460126DE710733002824D00168144ABC
:1040C00000251160134A181C157000F029FC041E0D
:1040D000AC4219D1FFF7F6FC041EAC420FD10E49D9
:1040E000301CFFF7A7FE02A800F0C0FB031C041C55
:1040F0000C3309D102A800F063FB041C04E0281C67
:1041000000F046FC00E0F42460B20CB070BDC04684
:1041100020060020240600208D3E000008B5FFF791
:10412000ADFD08BD1FB50023009301930293292123
:104130001A1C0120FFF7DAFC05B000BDF0B5A5B0F0
:104140001C1C2AAB1B88069005932BAB1B780F1CFD
:10415000161C0793012A03D17B1E1F2B1BD901E0DC
:10416000002C01D1F4206CE0022AF5D1201C00F0D3
:104170000CFF4028F0D10023E25C111C30393629B5
:10418000F0D80A390629EDD9473A192AEAD9013374
:10419000402BF1D1E0E7059B013B0D2B02D905999E
:1041A000FF29DFD109AD68463A1C6A30EF1906993C
:1041B00000F0DAFE3B1C403300279F71059A6B46E6
:1041C0002A33DA87079A531E9A416B468B331A704B
:1041D000263B1E70032E13D123782B70032BC1D8DE
:1041E00062781023111C6A7099430A29BAD1684673
:1041F000A11C263000F0B8FE6378EB189F7016E023
:10420000022E0AD1201C00F0C0FE431E9BB23F2BA1
:10421000A8D8421C211C281C04E0042E05D1281C0F
:10422000211C3E2200F0A0FE01E0012E9AD10023C5
:10423000009301930293012028212A1C6C23FFF78D
:1042400055FC40B225B0F0BD13B504AC24880094F1
:1042500000240194FFF772FF16BD1FB500230093E1
:104260000193029303211A1C0120FFF73FFC05B0C4
:1042700000BD10B5041CFFF7E9FB002806D1201C87
:1042800000F00CFA002801D1FFF706FC40B210BD87
:10429000F0B5051CB9B00C1C161C002837D0FFF770
:1042A000B9FE071CF420002F32D105A8291C882252
:1042B00000F05AFE201C00F068FE002827D0002CD9
:1042C00025D027AD211C4022281C00F04DFE37AB25
:1042D0001E70114B114A1F70114B1968CC2391426B
:1042E0000BD86B461633DA7F17A8013ADA77211C10
:1042F000402200F039FE2E708A23002200920192A3
:104300000292882105AA0120FFF7F0FB00E0F420CB
:1043100040B239B0F0BDC046240600204F13000063
:104320002C0600201FB50023009301930293052162
:104330001A1C0120FFF7DAFB05B000BD13B580247D
:1043400064000443A520211C400100F0F5F9A520DC
:104350000023400101A9019300F0EAF90028F1D1FE
:10436000019BA342EED116BD07B50023114801A958
:10437000019300F0DDF9002819D1019B802149004B
:1043800019430C48019100F0D7F900280FD1D02033
:10439000400101A900F0CCF9002808D1019B80213F
:1043A0004902D02019434001019100F0C5F940B203
:1043B0000EBDC04608140000F7B5214D2E682C1C18
:1043C000002E3AD180204001291C00F0B1F9071ECF
:1043D00027D11C4801A900F0ABF9061E01D02F60BF
:1043E00029E02B68184A934204D1019A012A1AD075
:1043F000164B08E0164A934209D1019B032B12D0B9
:10440000042B02D1134B23600DE0134BFBE7134A3F
:10441000934208D1EC208003291C00F089F9002880
:1044200001D02E6007E022680D4B1340A022D2027B
:104430001343236001E0002000E02068FEBDC04679
:1044400028060020F4130000A0021000A1021000B2
:10445000B0021000B1021000B2021000F000100013
:10446000FFFFF0FF13B5102001A900F061F900284B
:1044700025D1019B01242342F5D1201C01A900F084
:1044800057F900281BD101990223194206D10B20AC
:1044900001A900F04DF9002808D010E09943201C34
:1044A000019100F049F90028F1D008E001990123B9
:1044B000194204D099430B20019100F03DF940B21C
:1044C00016BD37B500230B2069460093019300F019
:1044D0002FF9041E31D1009B01210B4206D001208F
:1044E000694600F025F9041E07D026E019430B2089
:1044F00000F022F9041EF2D01FE0009B02210B42C3
:1045000001D0052506E01943012000F015F9041E2D
:10451000F7D012E00F2001A900F00AF9041E0CD117
:10452000019B5B0707D40220013D00F0C5FD002D73
:10453000F0D1FC2401E000F0F3F860B23EBD0000D1
:1045400038B5041C274800F0EFF8002803DB0120F1
:1045500000F0B2FDF6E7244800F0E6F8C30709D5FD
:10456000022C15D12149224800F0E6F8802121488B
:1045700049031EE0204D012000F09EFD013D1F4833
:1045800000F0D2F8002D2AD01D4B9842F3D1E7E776
:10459000032C06D11549164800F0CEF81548002125
:1045A00007E014481749042C03D100F0C5F8802413
:1045B00002E000F0C1F80024FFF7FEFE124B0005F8
:1045C000000D984202D90220204300E0201CFFF792
:1045D000B5FE0A480D4900F0AFF8002000E0FB20CE
:1045E00040B238BD14100000BC0702007DD51C3C51
:1045F000AC0702008C100000D10700000C000C007A
:104600009ED0AD10521352139F030000612F52EF42
:1046100037B5134B02380093124B01931D1C012830
:1046200003D8114B0093114B0193FA24E4000020AE
:10463000019B83420AD0022000F03EFD013C00981D
:1046400000F072F8002CF3D1FB2407E0019B00245A
:10465000AB4203D10248211C00F06EF860B23EBDAF
:104660008C10000036265302AC070200C3C15DD790
:1046700007B5A0200023400101A9019300F058F8DC
:10468000002807D1019B0449A02019404001019155
:1046900000F052F840B20EBDFFFBFFFF30B587B00F
:1046A0000023041C01A918480493059300F040F866
:1046B000002825D1019B002B0BD0C020800218437D
:1046C00004A9082200F03CF8002819D1049A0192AC
:1046D00005E00E4801A900F02BF8002810D1019A3E
:1046E000C02093B28002184302A90622019300F071
:1046F00027F802A9051C0622201C00F035FC281C06
:1047000040B207B030BDC04608000C009C14000049
:1047100008B500F045FC08BD08B500F0A7FC08BDD1
:1047200008B500F0DAFA08BD08B500F0EBFA08BDEC
:1047300008B500F0EDFA08BD08B500F0F3FA08BDC1
:10474000F7B50E4B051C1C880191083C161CA4B241
:104750000027019BD919A64204D8B2B2281C00F048
:104760002BFB09E0281C221C00F026FB002803D1AB
:10477000361B3F192D19ECE740B2FEBD04000020A6
:10478000F7B50E4B051C1C880191083C161CA4B201
:104790000027019BD919A64204D8B2B2281C00F008
:1047A0005DFB09E0281C221C00F058FB002803D107
:1047B000361B3F192D19ECE740B2FEBD0400002066
:1047C00073B50023041C01A922480193FFF7B0FF31
:1047D000214B019A061C9A4204D1204801A9FFF7F7
:1047E000A7FF061C019B0F251A0C91B2080A2A404C
:1047F0000909294062729AB22172110A12092A40EB
:104800002B4021716271A371E071FFF7D5FD002388
:1048100022792384A379617912022B401343090181
:10482000FF2211400B430E4920600B60E179607A52
:10483000090205400D43217A09010A4009492A432A
:104840008A4200D9F326084A934200D8F32670B270
:1048500076BDC046AC070200C3C15DD7481000005A
:104860002C06002052130000511300007FB50021D8
:1048700002AD041C019102916960884201D10020BF
:1048800042E0282200F079FB214801A9FFF750FF00
:10489000002839D10198002801D1F42034E0C02645
:1048A000B6023043291C0822FFF74AFF00282BD10B
:1048B000A88801900028F0D03043211C2822FFF75F
:1048C0003FFF002820D12279A3790F201202034054
:1048D00013436279FF2112010A4013430D4A13600A
:1048E000627AE5790240207A2D0200012A430140D4
:1048F0000A43002BD1D0002ACFD007498A4202D8E0
:10490000064A9342BBD8F32040B204B070BDC04603
:1049100008000C002C060020521300005113000068
:1049200038B5002803D005786B1E032B00D901256C
:104930000020FFF7EDFE041E28D1FFF73DFDFF2408
:104940002401E82320409B00984207D100F0F4F9AD
:10495000281CFFF7F5FD041E16D108E0FFF72CFD1B
:10496000AC2320409B00F02498420DD1EEE7281C98
:10497000FFF74EFE041E07D1023D012D06D9FFF7B9
:10498000F3FC002802D0041CFFF7C6FE60B238BD5D
:1049900010B5FFF76DFE041E09D1FEF7B5FB041E2E
:1049A00005D1FFF7B9FE041E01D100F0A5F960B2F0
:1049B00010BD1FB501AB0190002219810320191C05
:1049C000029200F007FB05B000BD1FB501AB00224D
:1049D000029019810320191C019200F0FBFA05B026
:1049E00000BD73B56C46061C0734CF2806D0031CE7
:1049F0003B33DBB2012B01D90B250EE0201C01213A
:104A0000FFF7E3FF0028F7D000201CE02378B34233
:104A10000AD0013DEDB2002D06D0201C0121FFF788
:104A2000D4FF0028F2D0EFE70B25201C0121FFF76F
:104A3000CCFF0028E8D12378002B03D0013DEDB254
:104A4000002DF2D1012040B276BD0000F0B585B056
:104A500000900C1C019200278026B601B44200D8B9
:104A6000A6B20A2568460B300121FFF7AEFF0028E9
:104A700001D0002020E06A46D37A1B090F2B05D015
:104A8000013DADB22BB20133ECD1F2E72DB2002DD6
:104A9000EFDD009BB6B238B21818311CFFF795FF56
:104AA0000028E6D1019A002A09D0A41BF319A4B268
:104AB0009FB2002CD0D1012040B205B0F0BD054B13
:104AC0001B78002BF1D103A80221FFF77EFF0028FD
:104AD000EBD0CEE73006002030B585B008AC2578A5
:104AE00001AC2070C1380E2857D803F08BFE21216D
:104AF000360E19192B2B4808565656561B000B0C10
:104B000063700B0AA370E17010E00B0ADBB2002D9A
:104B100002D08022524213436370A170002304E04C
:104B2000002300E0FF236370A370E370052138E0E9
:104B30000A0C62700A0AA2701A0AE170227163718B
:104B400007212EE00A0C62700A0AA2701A0C227168
:104B50001A0AE1706271A3710FE00B0ADBB2002D3B
:104B600002D08020404203436370130EE370130CA5
:104B70002371130AA1706371A271082111E00B0C5B
:104B800063700B0AA370130E2371130C6371130A65
:104B9000E170A371E271092103E0002040B205B089
:104BA00030BD0D4B4A1E1B78002B0DD17F200133E9
:104BB0004000994206D0E518013D2D786840074D28
:104BC000285CF4E7A05400E0D1B2201CFFF7F1FE0E
:104BD00043425841C0B2E1E730060020D0D5000082
:104BE000F0B585B0071C03910A25302F02D80123A8
:104BF000C32601E00023C9260093301C391C039A08
:104C00000423FFF769FF041E012C05D1301CFFF7B8
:104C1000E8FE041E012C13D0012000F04DFA002301
:104C20000093191C1A1CCF20FFF756FF013DCF201F
:104C3000FFF7D7FEEDB2012000F03EFA002DD4D1EF
:104C400060B205B0F0BDF0B587B0029003910A27BD
:104C5000029AFF2A02D80126C42501E00026CA25AF
:104C60000096281C029900220423FFF735FF041E3A
:104C7000012C1DD1281CFFF7B4FE041E012C17D1F6
:104C800005AD281C0421321CFFF7E0FE041E012C98
:104C90000ED16A78AB7812021B0413432A781343AF
:104CA000EA7812061343039A136060B207B0F0BDAE
:104CB000012000F001FA00230093191C1A1CCF20D8
:104CC000FFF70AFFCF20FFF78CFE012000F0F4F978
:104CD0007B1EDFB2002FBBD1E7E713B50024211CF8
:104CE000221C231C0094CF20FFF7F6FECF20FFF7F5
:104CF00078FE201C16BD0000014B00201870704784
:104D00003006002007B501A9FFF79DFF01980EBDF1
:104D100008B5FFF798FF012801D1002000E0FA2034
:104D200040B208BD08B5FFF75BFF012801D10020A4
:104D300000E0FA2040B208BD13B51D4C00231D4809
:104D400001A901932370FFF77EFF002803D0237889
:104D5000002B09D015E00123164801A92370FFF7A5
:104D600072FF0028F3D11DE0019A7C239A43502161
:104D7000114310480191FFF733FF002812D001239F
:104D80002370802040016946FFF75DFF00280BD0AB
:104D90000848FFF7B7FF70239843502101430548A7
:104DA000FFF7C0FF002000E0FA2040B216BDC04669
:104DB0003006002024E80000F0B5151C89B0002260
:104DC000059004910A270392012D01D10395022534
:104DD00000260096C8200599321C2B1CFFF77CFE8C
:104DE000041E012C1CD1C820FFF7FBFD041E012C62
:104DF00016D1039BB3420AD0321C07A8291CFFF727
:104E000025FE6A46137F049A041C137005E004987B
:104E1000291C039AFFF71AFE041C63B2012B13D05E
:104E2000012000F049F900230093191C1A1CCF201F
:104E3000FFF752FECF20FFF7D4FD012000F03CF930
:104E40007B1EDFB2002FBFD164B2012C01D1002044
:104E500000E0FA2040B209B0F0BD0000F0B50A232E
:104E600089B004900591151C0393012D00D10225F2
:104E700000260096C7200499321C2B1CFFF72CFE3D
:104E8000012854D1C720FFF7ACFD01284FD107AB53
:104E90001E802C1C8023221C9B019C4200D91A1CC2
:104EA00092B20292002E04D103229C4205D9012223
:104EB00003E00022A34252410232102368465B42C3
:104EC0001B301A4301210270FFF773FD00282ED119
:104ED000059B30B218180299FFF76BFD002826D108
:104EE000204F3B78002B07D0029BE41A9E19A4B2F6
:104EF000B6B2002CCED106E007A80221FFF759FD7B
:104F00000028F1D013E03E7807A8731E9E410236B8
:104F1000311CFFF75AFD002809D107AB9E19731EFB
:104F20001B78002B03D1023E3378C32B16D001200F
:104F300000F0C2F800230093191C1A1CCF20FFF7C1
:104F4000CBFDCF20FFF74DFD012000F0B5F8039B0E
:104F5000013BDBB20393002B87D1FA2460B209B086
:104F6000F0BDC0463006002010B500239A4203D0A1
:104F7000CC5CC4540133F9E710BD8318002A03D078
:104F8000017001309842FBD17047021C031C197854
:104F9000981A80B2002901D00133F8E77047000069
:104FA00010B50A4800F088FE094C00202056012167
:104FB00003F0B4FA00202056012103F009FB00F0B1
:104FC00085F8012000F078F8002010BDF8060020D8
:104FD00009000020F0B585B003283DD16B460C6870
:104FE0000F3300220E894D681A70944206D0954204
:104FF00030D10121019500911D1C03E00122009494
:1050000001921C1C164F174B381C06CB00F084FE77
:10501000154B00201856002103F0DAFA002E0FD0AD
:105020002178381C00F0A6FE009928704B424B41B5
:105030000199013EED184B424B41B6B2E418EDE741
:10504000094A00201056012103F0C2FA381C00F072
:105050007FFE02E0FA2600E0FF2670B205B0F0BD48
:10506000F8060020340600200900002008B5024898
:1050700000F04AFE002008BDF8060020034B044A59
:105080001A6000225A711A717047C0463406002017
:10509000001BB70008B5034B1B68002B00D09847D6
:1050A00008BDC0463C06002008B502F091FE08BDD0
:1050B00008B502F025FF08BD10B5041C002C04D073
:1050C000012003F08BF8013CF8E710BD10B50A4C45
:1050D0000020205600280DDB002103F079FA64201F
:1050E000FFF7EAFF00202056012103F071FA642047
:1050F000FFF7E2FF10BDC0460700002010B5114BBE
:105100000022114C1A6000202056904207DB01213A
:1051100003F004FA00202056012103F059FA0B4B4A
:1051200000201856002103F0F9F9094B0020185609
:10513000002802DB022103F0F1F9FFF7C7FF00208E
:1051400010BDC0463C0600200700002006000020DD
:105150000800002008B5054B05491860054B0020E4
:1051600018560322FFF7A0FF08BDC0463C060020EA
:10517000955000000600002008B5074B002806D017
:105180000020185605490322FFF78EFF03E0002098
:105190001856FFF78DFF08BD06000020955000004F
:1051A000014B19627047C0464806002008B5FDF75C
:1051B00085FF08BD30B587B0041CFFF79FFF134B78
:1051C00068460093FEF772FF051E02D0031C0D33E4
:1051D00019D1FEF753F90E490E48FEF76BF9211C61
:1051E00000230122293122600B7023616361A361D6
:1051F00023626362084BE2611A68084B9A4202D943
:105200000748FEF735FE281C07B030BD11570000D7
:10521000A1510000AD5100002C0600204F130000EA
:10522000FF0300000368F7B5041C002B01D1FFF752
:10523000C1FFE369002B03D0002323616361A361F5
:10524000FEF770FF251C2935002802DA042028709B
:105250002AE00023271C2B70283701233B7002F023
:10526000B7FF01902E7807231E4006D102F0B0FF51
:10527000019BC01A0D4B984212D9201C21224D309F
:10528000002105F0E9FD2A780323134001D13B708A
:1052900004E0FFF747F80020FEF740FF287803E01E
:1052A000301CFEF73BFFDDE7FEBDC0465FEA0000B5
:1052B000F0B5171C026885B0041C0E1C1D1C002ACA
:1052C00001D1FFF777FFE369002B03D000232361AF
:1052D0006361A361301C05F0ABFEFF23C1B20093F4
:1052E000301C2B1C3A1CFEF7AFFF251C293500286B
:1052F00002DA042028702EE00023221C2B702832B2
:1053000001231370029202F063FF03902F780723AA
:105310001F4006D102F05CFF039BC01A0F4B98425E
:1053200015D92A780323134001D1029A13704D3402
:1053300000212122201C05F08FFD301C05F078FE95
:10534000311C021C201C05F065FD287803E0381C88
:10535000FEF7E4FEDAE705B0F0BDC0465FEA000004
:1053600008B5131C0222FFF7A3FF08BDF0B50D1C02
:105370000168A5B0041C161C1F1C002901D1FFF7F1
:1053800019FF8822002102A805F066FD291C02A849
:1053900005F046FE6B460A330122DF773D331A7073
:1053A000002712AB49211F706944C0230B706B4664
:1053B0004A33A82119705A70311C13AB02A81A7015
:1053C000FEF766FF261C2936B84202DA0B20307041
:1053D00020E00A233370231C283302221A7025335D
:1053E000181C391C2122019305F036FD281C05F0FC
:1053F0001FFE291C021C019805F00CFD201C6946AB
:10540000103049310422FFF7AFFD034B216963617E
:10541000A161307825B0F0BDFFFFFF0013B5081C77
:105420000C1CFEF726FF6846FEF723FF002300A8AA
:10543000C11849795A42013BA1549A1DF7D1201C49
:1054400016BD00697047031C29331B78032B03D05A
:10545000DA1F0023012A01D8031C4D33181C7047A2
:1054600070B5031C28331B78041C002B15D00025B5
:105470000020FEF753FE2562FEF7EFFEA8420FDB89
:1054800002F0A6FE061C256A002D0BD102F0A0FE3C
:10549000094B801B984209D904E06420404209E08E
:1054A000281C07E00023206A236203E0281CFEF783
:1054B00035FEE8E770BDC046E7030000036810B59D
:1054C000041C002B01D1FFF775FE29340020FEF7E4
:1054D00025FE207810BD000030B587B0041C0D1CDF
:1054E000FFF7A0FE032810D06946201CFFF796FFA7
:1054F00069464A780B7802A8064905F06FFD201C22
:1055000002A9054A2B1CFFF731FF201CFFF7D6FF2D
:1055100007B030BDDFD60000F0D6000008B501218D
:10552000FFF7DAFF08BD0000F0B5041C85B0151CBC
:10553000132900D19CE00FD8062900D1C6E005D878
:10554000042900D0DFE00023D356DBE009295BD03B
:10555000112900D188E0D6E02A2909D003D81B29D7
:1055600000D1C7E0CFE02C290AD032293FD0CAE0D1
:105570000023D356002B00D1C5E0293406230DE0CB
:105580001378012B12D1031C28331B78012B07D170
:10559000C069002800D0B6E0293403232370B2E0AC
:1055A000032B00D0AFE029340823F7E7002B00D00D
:1055B000A9E0021C28321278012A12D1021C2932D9
:1055C00006211170C269002A02D003614361836120
:1055D000002461B24D480134FDF7BCFB0B2CF8D11F
:1055E00091E0032A00D08EE029340723D6E7031C7C
:1055F00028331B78012B00D085E0136855680361C0
:10560000D068A5616061C7E7131C63331E78002E64
:1056100023D1071C4D37311C2122381C05F01CFCFE
:10562000281C05F005FD291C021C381C05F0F2FBA6
:10563000231C283301221A70281C26616661A6618A
:1056400005F0F6FC2B1CC1B26233FF201A780090E3
:10565000413B281CFEF7F8FD55E0031C29330B22C3
:105660001A70FFF75BFF4EE01378002B4BD021E060
:105670000A32101C039205F0DBFC261C2A36071C9C
:105680000021301C212205F0E7FBBBB2002B04D027
:105690001A1C301C039905F0BDFB606A0523002825
:1056A0000BD10123EB562362AA78231C4B331A70CB
:1056B000EA785A702934022370E7EA181179606A8F
:1056C0000522D21A8154013BF7D2EAE7426A002A46
:1056D0000AD06B1825331A78606A06235B1A0139E1
:1056E000C2540029F5D16162201C291C4D3005F0FF
:1056F00097FC08E0006A002805D0111C082205F07C
:1057000089FB0023236205B0F0BDC0465C04002085
:1057100008B5031C0A1C0248191CFFF705FF08BD49
:1057200048060020F8B5041C101C0D1C161C01F0C6
:10573000A3FD0123002821D12062281CFEF7BAF81E
:10574000002801DA002319E002F042FD071C256A57
:10575000002D05D102F03CFD094BC01B984209D930
:10576000216A0029EED0301C01F0ACFD0023236239
:10577000012303E0281CFEF7D1FCE8E7181CF8BD64
:105780001F4E000013B50024211C221C231C009472
:10579000064801F05BFD064BFF211A1C28321470ED
:1057A0001A1C293211701C6013BDC046400600202F
:1057B0004806002013B502686B46D9710733546858
:1057C000191C0122A04716BD13B503686C460734A7
:1057D0005B6A211C01229847012801D1207801E051
:1057E0000120404216BD7047007C40B20130431E8C
:1057F0009841C0B27047000010B510214156041CFA
:10580000002904DB0248FDF7A5FAFF23237410BD2D
:105810005C04002008B51021415600204B1C02D02A
:105820000148FDF74DFA08BD5C040020036870B51F
:105830001B69041C0E1C151C984780B2002807D059
:1058400010216156321C2B1C0348FDF74CFB01E074
:105850000120404270BDC0465C040020036810B5C2
:105860001B69041C9847002805D010216156034885
:10587000FDF70AFB01E00120404210BD5C0400205E
:1058800008B510214156002903DB0348FDF7FAF95A
:1058900000E0002008BDC0465C04002013B51022C3
:1058A0008A56041C531C06D100230093191C1A1C91
:1058B00001F0CCFC02E00249FDF719FA201C16BDEC
:1058C0005C04002070B510214156051C00204B1CC3
:1058D0000DD0074C201CFDF714FA1021061C695648
:1058E000201CFDF70EFA36020012304380B270BD64
:1058F0005C04002070B5037C041C0E1C151C7F2B5F
:1059000006D8002A04D00368DB6A9847002803D130
:1059100001236360002009E0102161560448321C15
:105920002B1CFDF7F3F90028F2DD281C70BDC046E2
:105930005C04002000234360FA239B008360034B38
:1059400008330360FF2303747047C046F8D6000095
:1059500000234360FA239B008360024B01740833E9
:1059600003607047F8D60000F0B589B004AD03932A
:1059700002232B804968036852BA6A806960DB6A37
:10598000041C9847002803D02368201C9B6A984772
:10599000184E0221301C0122039BFDF7BBF8071CA7
:1059A000207423D4039BDB070ED50E9B002B0BD05A
:1059B000181CFFF7EAFA0E9B022200930190391C93
:1059C000301C131CFDF714F910212A1C6156301CE1
:1059D0001023FDF719F9051C0120002D07D1102116
:1059E0006156301CFDF7B6F9FF232374002009B07F
:1059F000F0BDC0465C0400201FB5054B496802930A
:105A000000230391009302A9FFF7AEFF05B000BD8C
:105A100040DB0000F0B587B00C1C071C02A8161C68
:105A20001D1C01F00BFC0A48211C02AAFFF77AFE9C
:105A300000280AD0074B00940493039B381C05935D
:105A400004A9321C2B1CFFF78FFF07B0F0BDC04626
:105A50004806002040DB000008B50023FFF7DAFF0E
:105A600008BD000007B5002300930348191C1A1C49
:105A700001F0ECFB07BDC046B806002007B50023C7
:105A800000930348191C1A1C01F0E0FB07BDC04637
:105A9000C006002007B5002300930348191C1A1CF8
:105AA00001F0D4FB07BDC046C806002013B502684C
:105AB0006B46D97107335468191C0122A04716BDE3
:105AC000F0B585B00190029103920823C3560133CB
:105AD00018D00024251C019A0C4F082166B251569B
:105AE000381C321CFDF767F9002806D0381C311C21
:105AF000029A039BFDF70AF92D180134072CEAD10D
:105B0000281C00E0002005B0F0BDC0465C04002069
:105B100000234360034B418108330360FF2303727A
:105B20007047C04640D700007FB502236A46138005
:105B300043890E1C5BBA5380002301930821415610
:105B4000041C1B4D4B1C04D0281CFDF7AAF8002890
:105B500023D10221281C0122331CFCF7DBFF011C8E
:105B6000207218D4281C6A461023FCF7E5FF082190
:105B7000061C6156281C002E09D00022FDF710F8E3
:105B8000061C0120002E10D108216156281CFDF7AB
:105B9000E1F8FF232372002007E008216156281C4A
:105BA000FDF7D8F8FF232372D3E704B070BDC046D9
:105BB0005C04002008B50021FFF7B6FF08BD000017
:105BC000F8B5051C0E1C002A01D000231370082113
:105BD00071564B1C04D01948FDF763F8002824D0F7
:105BE000082171564B1C1CD0144C201CFDF7ECF8FE
:105BF0000024C1B2A0421BDA082167B271560F48D7
:105C00003A1CFDF7D8F8002807D00C48391CFDF7DE
:105C100057F8002801D0E1B20AE00134E4B2072CC1
:105C2000EAD1281CFFF786FE05E0FF233372D7E791
:105C3000281CFFF78DFE281CF8BDC0465C04002020
:105C400007B5002300930348191C1A1C01F0FEFA43
:105C500007BDC046D006002007B5002300930348C7
:105C6000191C1A1C01F0F2FA07BDC046D806002024
:105C7000437A002B04D18372C372C3600123437241
:105C8000704730B585B0041C02AD006802910392E4
:105C900001F0CCFC6B79E179227A00932068002333
:105CA00001F02CFE29792068029A01F08FFC20680F
:105CB00001F0B2FC05B030BD70B5041C1826FFF72A
:105CC000D7FF2079331C43430D4D0821EB1859565B
:105CD00002F0AEFCA079331C43430821EB1859565F
:105CE00002F0A6FC607908214643AD19695602F01E
:105CF0009FFC044B201C06CBFFF7C3FF70BDC046C2
:105D000060D70000E006002010B5041C006801F018
:105D100075FC0023637210BD07B5837A0091019270
:105D2000002B0DD09A0706D5EFF310835A4253414A
:105D3000C37272B604E0DA0702D58289034B9A6017
:105D40000099019AFFF79DFF07BDC046001800406B
:105D5000837A002B0BD09A0704D5C37A002B06D088
:105D600062B604E0DA0702D58289014BDA60704737
:105D70000018004008B5006801F061FC08BD000093
:105D80000F4B104A10491A6000225A711A710F4BBA
:105D90000F4819600A211971092199710821597157
:105DA00003215A72DA7119720A4B18601D2018719A
:105DB0001B2098711A205A725871DA711972704743
:105DC000E006002000093D00CC070020E806002086
:105DD000D0070020F806002008B50368C9B21B6888
:105DE000984708BD014B01704360704720020020B6
:105DF000F8B50F1C041C0178BF004068161C1D1C60
:105E0000FCF7FCFCB91D6068FFF7E6FF311C606819
:105E1000FFF7E2FF31126068FFF7DEFF291C6068C0
:105E2000FFF7DAFF29126068FFF7D6FF6068FCF71A
:105E30009CFDF8BD38B5041C0D1C01784068FCF7CA
:105E4000DDFC6068291C03681B6898476068FCF7E4
:105E50008CFD217801226068FCF724FD60680368EE
:105E60005B699847C0B238BD70B5041C0E1C017840
:105E70004068151CFCF7C2FC6068311C03681B6895
:105E800098476068291C03681B6898476068FCF79E
:105E90006CFD70BD08B500218022FFF7E5FF0A20E8
:105EA00002F09CF908BD0000F8B5061C081C04F0BF
:105EB0005DFE204B1E4A04F037F804F0A9FE011CD9
:105EC0001F4802F0B9FDFE21890502F0DBFE04F057
:105ED0004DFE194A194B03F0A1F800F045F80D1CCE
:105EE000041C0021301CFFF7A5FF6F221023024085
:105EF0001A43071C0021301CFFF7B6FF291C201C89
:105F000002F07AFDFE21C2B2301CFFF7ADFF301C5B
:105F10003A1C0021FFF7A8FF052002F05FF960227C
:105F200052421743FAB2301C0021FFF79DFFF8BD23
:105F3000CDCCCCCCCCCCEC3F000000000000E03F4E
:105F400020BCBE45C046C04610B5041C4068FCF7E6
:105F500035FC201CFFF79EFF201C0249FFF7A4FF21
:105F600010BDC04600007A44F0B556464D46444642
:105F70005F46F0B4524A4F007F0D83B0BE18041C38
:105F80000D1C89468A4680460197132E2ADC002E76
:105F900056DB4C4F021C37413B1C0B4003439C46D5
:105FA000BB4667460B1C002F13D0424B404A03F000
:105FB00035F8414A414B02F009FD002807D0002D79
:105FC0004EDB53465F46BB430022994690464B4604
:105FD0004246101C191C03B03CBC90469946A24690
:105FE000AB46F0BD332E0BDD0B1C8021021CC9001B
:105FF0008E42EED1291C03F011F8021C0B1CE8E7BD
:10600000019F314ABB1801225242DA4093465F4653
:10601000021C0B1C0742DCD0264B254A02F0FEFF77
:10602000254A264B02F0D2FC0028D0D0002D1DDBE3
:1060300042465B469A439046D1464B464246C8E7A5
:106040001C4B1B4A02F0EAFF1B4A1C4B02F0BEFC31
:106050000028BCD0002D17DB0027B846B946B6E7AC
:1060600080235B0333415E19B246AAE7142E19D090
:10607000164B019A9F1A0123BB401B199C420FD952
:106080006F1CBA469846D3E76B005B081C4302D1ED
:106090000027B8469BE70E4F00239846B94696E77F
:1060A0009846C5E76B1C9A46C2E7C046C046C04644
:1060B0009C7500883CE4377E000000000000000072
:1060C00001FCFFFFFFFF0F00EDFBFFFF33040000AB
:1060D0000000F0BFC046C04608B5024801F09EFD72
:1060E00008BDC0460807002013B51249124801F048
:1060F000EFF91249124801F0EBF91249124801F088
:10610000E7F91249124801F0E3F91249124801F087
:10611000DFF9124C1249201C01F0DAF90323009335
:1061200001230193211C0D220E230E4801F096FC41
:1061300013BDC04600080042C8070020000C004202
:10614000CC07002000100042D007002000140042BD
:10615000C407002000180042D4070020D807002000
:10616000001C0042080700203F20704713B502685A
:106170006B46D97107335468191C0122A04716BD1C
:1061800008B50069022100F03DFC08BD08B50069B2
:10619000032100F04DFC08BD38B50D1C041C131C78
:1061A000006903212A1C00F033FD002801D10123DE
:1061B000636038BD10B5054C23685A1C04D10368D0
:1061C0005B6998472060031C181C10BD5C00002010
:1061D000074A08B51368591C04D0012149421160CF
:1061E000181C03E00069022100F004FD08BDC04650
:1061F0005C00002008B50378034902330370422293
:10620000024800F0AFFD08BD18000020A30C0020DC
:1062100010B50178031C42780020A12908D1212A59
:106220002FD118481849072200F09CFD012028E0D2
:10623000212926D1202A05D113490722114800F02F
:106240003DFC04E0222A10D19A780F4BDA710E4BF4
:1062500096221968D200914210D1DC7901231C40AA
:106260000CD1FA2001F0ECF80AE0232A09D1DA78FF
:106270009B7812021A43054B1A6002E001F0E6F81F
:10628000002010BDA30C00200C00002014000020F2
:106290007047000010B501F09BFFF423FF3300248A
:1062A000984207D9044B0A20DC79631E9C41E4B272
:1062B00001F094FF201C10BD0C000020064BFA21B9
:1062C00089009960054900220831196004495A6023
:1062D00019611A767047C046DC070020C0DA00005A
:1062E000A30C002010B507230F220240141C000944
:1062F0003034092A00DD0734CC54013BF4D210BD00
:1063000070B582291ED1C2B22A495301CB189D69AA
:10631000294C80012C40C025AD052C439C61274CA5
:106320000832201858610B68520199180C798020A6
:10633000404220430871D15C7020814330200143EA
:10634000D15435E0002933D1C2B21A495301CB18D8
:106350009E68194DC0242E40A40526439E60184E09
:10636000800109683018083258605201505C0726D5
:10637000B0430126304350549E6935402C439C6104
:106380000E4C5C61505C7024A04310242043505498
:106390009C680C488A18204080246403204398603D
:1063A00098684021800B8003986053790B435371A8
:1063B00070BDC046A80C0020FFFFFF8F040900201D
:1063C000C40A0020FF3F00F038B5041C08CC0121AE
:1063D0001A78051C0A431A708022201C00215200E2
:1063E00004F03AFD2B689A78D107FCD45C6238BD82
:1063F000134BF0B51B6899035A029B01C90ED20ECC
:106400005B0F1F2900D105211F2A00D11D22072B58
:1064100000D1032304688E01278D0A491F253940C6
:106420003143218501682A400C8DAC4322430A8503
:1064300002681903108D044B03400B431385F0BD14
:10644000246080003FF8FFFFFF8FFFFFEFF3108312
:1064500003600123436072B670470368002B02D1CA
:1064600062B6BFF36F8F704737B50569041C684685
:10647000002D12D1FFF7EAFF019B013B03D3621D00
:10648000D57FEDB2F9E768460193FFF7E6FF0020FC
:10649000854217D0206AE36913E0FFF7D7FF019B1D
:1064A0000025013B04D3221C34321578EDB2F8E705
:1064B00068460193FFF7D1FF0020854202D0206B90
:1064C000E36AC01A3EBD0000436810B51A68037A3B
:1064D00001215B01D318FF339A7A0A439A72037A37
:1064E00042685B01D318C2689C6891040B4A090991
:1064F00022400A439A60037A42685B01D3189A6883
:106500004021920B92039A6043681A68037A083319
:106510005B01D3181A790A431A7110BDFF3F00F0CE
:10652000F7B50569041C0E1C171C6846002D1FD109
:10653000FFF78CFF019B013B5A1C06D0621DD17FE7
:106540005A1E00293AD0131CF6E768460193FFF75C
:1065500084FF0025E369BD4235D0226A934232D2DE
:106560005A1CE261A269D3181B7873550135F1E713
:10657000FFF76CFF019B013B5A1C08D0221C3432F0
:1065800015785A1EEDB2002D18D0131CF4E768469A
:106590000193FFF762FF0025E36ABD4226D0226B1C
:1065A000934241D322E0621D0021D1773032167828
:1065B000581E8E4214D1031C5A1CF4D16846019314
:1065C000FFF74BFF38E0226A934235D10023E361A5
:1065D000012323616846FFF739FF019B013BEBE78D
:1065E0001170201C0193FFF76FFFF6E7226B9342B7
:1065F00022D10023E36223616846FFF727FF019B56
:10660000013B5A1CDAD0221C3432002111700132B5
:106610001678581E8E4201D1031CF2E71170201C1F
:106620000193FFF751FFEAE75A1CE262A26AD3180E
:106630001B7873550135AFE7281CFEBD37B543689D
:10664000027A1B68083252019A18041CD07901237F
:10665000FF21184255D0D371A06865696268014076
:10666000002D1FD14901521891688904890C2162BB
:10667000216A002942D06361A36A68465360FFF72C
:10668000E5FE019B013B5D1C34D0621D0120D077EB
:106690002F3211785D1EC9B21218002915D1117060
:1066A0002B1CF0E74B01D3189A689204920C2263DA
:1066B000226B002A22D000226261A26968465A60D9
:1066C000FFF7C4FE019B013B12E001931070684686
:1066D000FFF7C3FE15E0221C343201201070621D4A
:1066E000D17F5D1EC9B230320029EED111702B1C52
:1066F0005D1CF0D168460193FFF7AFFE201CFFF749
:10670000E3FE37BD37B500236C46E3710734201C28
:106710000D1CFFF76FFD2B681818286002F030F889
:10672000211C01F0E7FF2B681818286020783EBD77
:1067300003290BD10D4BB2221B685200985C8021BB
:10674000494201439954022168220CE001290CD1ED
:10675000064B92221B685200985C802149420143FB
:10676000995402212822FF3299547047A80C002026
:1067700038B5264B2021DA69051C0A43DA61244B1F
:1067800001201A78062402431A70224B0F2219782E
:10679000914319701978214319701F490C782043CF
:1067A000087019780A401A701A7860210A431A7022
:1067B0001A4B1B4A5A805A78D209FCD1194801F069
:1067C00001FD194C201CFFF7FFFD201CFFF710FEF8
:1067D00023687F2219780A401A701A7804210A4324
:1067E0001A701A890C218A431A81C1210F4A890023
:1067F00050580002000A5050802111601A7802217E
:106800000A431A7001232B7038BDC04600040040B3
:10681000584400413C44004159440041000C0040B0
:1068200006400000E1710000A80C002000E100E03B
:106830000078002810D0094B01211B681A898A436F
:106840001A811A8B08210A431A831A8B04210A43DE
:106850001A83034B00221A607047C046A80C002020
:10686000AC0D00200F4B9A69920B92039A611B6842
:106870000222FF331A7298798022524202439A719F
:106880001A7A9007FCD5084B081C997A7F22104091
:10689000914301439972997A802252420A439A7233
:1068A0007047C046A80C00200050004110B50B797D
:1068B0000C1C002B0BD1081CFFF7AAFC002804D1EC
:1068C000094B9A69920B92039A6101200BE001F047
:1068D00057FF211C01F042FF0028F6D1024B9A69B4
:1068E000920B92039A6110BDA80C0020F7B50E1C04
:1068F000832A18D1CAB235495301CB189C69344850
:10690000B6012040C024A4052043986131480832D4
:1069100086195E610B685201D15C70208143402072
:106920000143D15450E0022A4AD12B4A89008D58A4
:106930000191002D48D1382001F08EFC274B802793
:106940000360224B7F004360431D05628660056142
:106950004561C561C760DD772F33041CC5620563DF
:106960001D70381C5D7004F041FAA061381C04F001
:106970003DFAFF2315491E407601A0628E19B168C9
:10698000134A07250A40C02189050A43B260A1685D
:1069900062681940126808314901885CA8430325E0
:1069A00028438854A268616813405B01A269CB1830
:1069B0005A60201CFFF788FD019B07495C5003E0EB
:1069C000081C111CFFF79CFCF7BDC046A80C00205A
:1069D000FFFFFF8F04090020840C0020F0DA000084
:1069E00038B5051C0124064BA200D258002A06D057
:1069F000211C281C0134FFF779FFE4B2F3E738BD0E
:106A00006000002008B5084B8A00D058002803D049
:106A100003689B68984706E0C9B2044B49015918BE
:106A200088688004800C08BD840C0020A80C00201D
:106A300010B50C1CFFF7E6FF00280CD0064BE1B2A6
:106A40001B680831490159184A7980235B42134376
:106A50004B710223CB7110BDA80C002070B5CAB2D7
:106A6000134B1448540189015918031959609D6842
:106A70001149083229408025AD022943996099685F
:106A80004026890B890399600368510159180D79D3
:106A900035430D715101591889794D06FAD55101C7
:106AA0005918C979CD07FAD50419A068C0B270BDCC
:106AB000C40A0020A80C0020FF3F00F038B50C4BA2
:106AC000141C1B680D1CFF335A7940210A435A716C
:106AD0000021FFF7C3FFA04200D9201C0023A342DE
:106AE00004D0044A9A5CEA540133F8E738BDC04642
:106AF000A80C0020C40A002010B5C9B20C484901F6
:106B000043189A689204920C3F2A08D9141C9A6878
:106B1000403CA404920BA40C9203224302E09A6826
:106B2000920B92039A6041188868C0B210BDC046AB
:106B3000A80C0020F0B51C1C2A4B85B01B68061C55
:106B40000D1C0292002B46D0274B8A00D0580028FB
:106B500005D0036802995B68221C98473FE0301C0F
:106B6000FFF750FFA04204D2301C291CFFF74AFF58
:106B7000041C291C301CFFF7BFFF1C4FE9B24A015F
:106B80000191396803928B18FF335A7A01210A4325
:106B900017495A72AB01C9180298221C04F03AF93D
:106BA000002C1BD0301C291CFFF72CFF002815D10E
:106BB000019B3A6808335B01D318197940200143DF
:106BC00019710121D97103995318FF339A7A012160
:106BD0000A439A7202E00120404200E0201C05B006
:106BE000F0BDC046AC0D0020840C0020A80C002095
:106BF000C40A002013B56C460734221C0123FFF79A
:106C000099FF012801D1207801E00120404216BD02
:106C1000F0B51C1C3A4B85B01B680E1C0292002B71
:106C200060D08023DB019C425CD800220092002CC3
:106C300056D0344DF7B22B6801933B1C0833019AB0
:106C40005B01D3189B79DB091AD02F4B2F491868A9
:106C500001F0E2FD2E4B1721584301F0DDFD3B1CF6
:106C60000833019A5B01D318DB799A0708D4294BC2
:106C70009A5D002A38D1421E002835D0101CEEE75C
:106C8000244B00229A55251E3F2D00D93F25224A2C
:106C9000B301D318181C02992A1C039304F0BAF804
:106CA000184A7B01D318039AA9045A619A69890C7E
:106CB000920B92030A439A613B1C019A08335B01D1
:106CC000D3180222DA715979802252420A435A714A
:106CD000009B029A5B1952190093641B0292A6E76B
:106CE00000980BE0012008E001229A557B01ED1885
:106CF000AB69101C9B0B9B03AB61404205B0F0BD20
:106D0000AC0D0020A80C00208C00002040420F0099
:106D100070110100FC0800200409002070B50E4D20
:106D20001C1C8B01ED18281C0E1C111C221C04F0CD
:106D300071F8F6B20949760189194D618A69084BE3
:106D4000201C13408B618B69A2049B0B920C9B034C
:106D500013438B6170BDC04604090020A80C0020BD
:106D6000FF3F00F0F7B5114B01901B780F1C141C6E
:106D7000002B19D10E4B1E78002E01D1151C08E0F6
:106D80000C4D0D482E888019361904F043F82E80DA
:106D90000AE0002D08D0BA192B1C01980021FFF73A
:106DA000BDFF36182D1AF4E7201CFEBDA20C0020F2
:106DB000A00C0020FA080020F9070020F8B50E1CEE
:106DC00000AF151E012D28D9D31DDB08DB006A4654
:106DD000D21A9546081C04F02BF901306C4640008D
:106DE0000323207063700222AA420ED23378002B54
:106DF0000BD0511CC9B20136A354A94204D00023C0
:106E000002326354D2B2EFE72A1C0548211CFFF777
:106E1000A9FF431E9841C0B200E00020BD46F8BD66
:106E2000A30C002008B5044B00221A70034B044940
:106E30001A88FFF797FF08BDA00C0020FA08002071
:106E4000F9070020F0B5204A87B001230026009101
:106E500002A91370051C0296FFF754FC03AC092726
:106E600001903A1C201C311C03F0F6FF02236370D2
:106E7000A023E371FA232372029B0122DB196380B2
:106E8000019B62712371104A009B27701670BB42F0
:106E900005D1281C211C1A1CFFF764FF11E00B4BC5
:106EA00001221A700A4B211C3A1C281C1E800296D3
:106EB000FFF758FF281C02A9FFF724FC281CFFF746
:106EC000B1FF012007B0F0BDA20C0020A00C0020F3
:106ED000FA08002070B5CE7892B0051C0C1C022E6A
:106EE00008D1C9882D48FFF7ADFF031C581E834108
:106EF000D8B251E001F044FC211C01F010FC002844
:106F000003D0C3171B1AD80F46E0012E04D1E28824
:106F10002349112A3BD837E0032E3DD1A278002A1D
:106F200005D12049E2880B7893422DD82FE0022A20
:106F300003D1A279281C1C4904E0012A05D1A279B9
:106F40001A49281CFFF73AFF26E0032A24D1184BE0
:106F500001A91868FFF7C6F9164B03A91868FFF7CF
:106F6000C1F9154B05A91868FFF7BCF9134B07A920
:106F70001868FFF7B7F901F003FC09A901F0DFFB7E
:106F8000A279281C01A9DDE7D2B2002A00D10A7833
:106F9000281CFFF7E7FE012012B070BDA30C0020F3
:106FA00010DB00000CDB000022DB000000DB000037
:106FB0000CA0800040A0800044A0800048A0800079
:106FC00073B5051C48780C1C0B2878D801F01AFC06
:106FD000081C7728773E4306474B686F00206FE018
:106FE000097801AA002903D111705170281C09E009
:106FF000002313705370334B1B78012B00D1137097
:10700000281C002102234FE08A780023012A04D1A2
:1070100001AA137053702C4BEEE72A4A137049E013
:107020008E78012E07D1284B01AA00211E70117005
:10703000281C331C38E0002E08D1224A012313708B
:10704000224A9169890B8903916138E0A178281C53
:10705000FFF708FC33E0281CFFF73CFF30E0281C5A
:1070600000211B4A1FE00A780020D30628D1281CE3
:10707000FFF7B6FCA2781549154B02241A600A687E
:107080002A23FF33D05C2043D0544A20FF30145CC5
:1070900001231C4314548A69920B92038A610EE007
:1070A0000C4A281C00210123FFF738FE07E08A78EC
:1070B000084B1A60054B9A69920B92039A61012062
:1070C00076BDC046F8070020A10C0020A80C0020C7
:1070D000AC0D0020A40C0020F8B53B4B071C1C781D
:1070E000002C70D1394D2868838B19070ED5201CD0
:1070F000211CFFF705F92B6810201A1CFF32917A2A
:1071000001439172324A146008229A832B689A8B49
:10711000500701D504229A83FF331A7AD10626D567
:1071200010221A725A7940210A432A495A710A7860
:107130006023381C1A4202D1FFF742FF01E0FFF73B
:10714000B5FB002806D02B688022FF339979524284
:107150000A4301E0204B20229A712B68FF331A7AF0
:10716000500604D540221A72597A0A435A72296885
:10717000FE230E8C00241E40E1B2002E23D0321CD0
:10718000012322411A4216D0221C286808325201DB
:107190008218D079184203D1D279DA401A4207D046
:1071A0000E4BA200D058002809D003681B689847EE
:1071B0000123A3409E430134092CDDD103E0381C98
:1071C000FFF7B6FAF4E7F8BDA00C0020A80C0020E9
:1071D000AC0D0020C40A0020FF500041840C0020A8
:1071E00008B50248FFF778FF08BDC046A30C002091
:1071F000014A024B1A60704700500041A80C002061
:10720000F7B5002401900D1C261C019A281C1319A7
:1072100019790A2200F00FF92E21071C281C00F012
:107220008DF80134C719F619032CEED1019B281CE7
:10723000D9790A2200F0FFF83018FEBD024B08335E
:10724000036000234360704738DB000030B503ACB7
:10725000044D247808350560017142718371C47151
:1072600030BDC04638DB0000024B4160083303608C
:107270007047C04638DB0000002230B5131C051CE7
:107280000C78002C16D0201C30380131092807D882
:107290000A204343303B1B199BB2FF2BF0D90FE070
:1072A0002E2C0DD1032A0BD0501CAA181371C2B278
:1072B0000023E5E7201C032A03D1EB71012000E045
:1072C000002030BD41607047044A054B08321A6007
:1072D00000221A715A719A71DA71704738DB000016
:1072E000B00D0020F7B58A18061C0D1C01920C1C6D
:1072F000019B671B9C4207D0336821781B68301CB8
:10730000984701340028F3D1381CFEBD08B5036846
:10731000C9B21B68984708BD38B5051C0C1C081E6F
:1073200007D003F085FE2B68021C5B68281C211C1B
:10733000984738BD08B5FFF7EFFF08BD08B50368EB
:107340001B68984708BD10B50A68041C1268081C21
:10735000211C904710BD000008B50249FFF7DCFF73
:1073600008BDC04648DB000038B5041CFFF7D4FF59
:10737000051C201CFFF7F0FF281838BD38B5041C89
:10738000FFF7E1FF051C201CFFF7E6FF401938BDA1
:10739000F0B58DB0161C0BAB002201900C1C1A70BE
:1073A000012E00D80A266D462B35201C311C01F019
:1073B00077FA201CCFB2311C01F02EFA291C041CD4
:1073C000092F01D8303700E03737FFB22F70013D69
:1073D000002CEAD10198FFF79FFF0DB0F0BDF8B582
:1073E000041C0D1C161E04D10368C9B21B68984703
:1073F00012E00A2A0DD100290ADA2D21FFF79EFF9B
:107400006942071C321C201CFFF7C2FFC01903E0B1
:1074100000E0D2B2FFF7BCFFF8BD08B5FFF7DFFF11
:1074200008BD08B5002A02D1FFF770FF02E0D2B212
:10743000FFF7AEFF08BD08B5FFF7F3FF08BD00007A
:10744000014B18607047C04688000020024B0122A3
:1074500052421A607047C04688000020154A1368DF
:10746000581C25D0013B1360002B21D172B6124A63
:10747000124B04329A4207D8BFF34F8F104A114B78
:10748000DA60BFF34F8F11E00F4B197DC807FBD5B2
:10749000188B2021FF319208520001431983DA61D1
:1074A0000A4A1A801A7DD107FCD5E5E7C046FDE7F8
:1074B0007047C04688000020002000000302000042
:1074C0000400FA0500ED00E00040004102A5FFFFC6
:1074D00001607047F7B508AC267804689D1E2768E0
:1074E0006C1EA541ECB2920705683A4327063A4361
:1074F0002A600268072529405068B501002C00D099
:107500005C03294301430C435460F7BD30B5036865
:10751000C0251C68AD0312052A402243C024A402E2
:10752000090421401143196003685A6814435C60E0
:1075300030BD036801211A680A431A6002681168A5
:1075400001231942FBD1D1691942F8D17047036870
:1075500002211A680A431A600268D3699907FCD4A9
:10756000704703681A7ED10702D41A7E9107FCD5B2
:107570007047036800225A8370470368187E4007EB
:10758000C00F70470368187EC009704703688022E7
:10759000197E52420A431A7670470368187E012307
:1075A000184070470368188DC0B2704703681A7E90
:1075B00001200242FBD019857047036801229A75A9
:1075C0007047036801221A757047000070B50368A0
:1075D00001268D07ED0F31401C686D07090729430F
:1075E0002143196004685100034801F015F901387E
:1075F000C0B2207370BDC046006CDC02036801217C
:107600001A680A431A600268116801231942FBD103
:10761000D1691942F8D17047036802211A680A43F8
:107620001A600268D3699907FCD470470368DA6965
:107630009107FCD41A6802218A431A6070470368D4
:107640009A6A520A52021143996203681A7E5107DC
:10765000FCD5986AC0B27047036801211A680A43D2
:107660001A600268116801231942FBD1D1691942DD
:10767000F8D17047036802211A680A431A60036848
:10768000DA699107FCD45A8B30218A4310210A43CE
:107690005A830268D3695907FCD470470368802273
:1076A00019685968D2020A435A6070470368034A4E
:1076B000196859680A405A607047C046FFFFFBFFCF
:1076C00030B5036803241D680C40074A5968240438
:1076D0000A40ED0622436D0F5A60052D03D1026862
:1076E000D3695907FCD430BDFFFFFCFF49001143AB
:1076F000036830B5CDB2598B032409092140012913
:1077000004D0598B09090C40022CF4D1596AC90ADA
:10771000C902294359620368002A03D11A7ED1079E
:10772000FCD50DE0187E01224008104008D1197EDA
:107730001142F7D05968C02292020A435A6003E00E
:107740005B8B01209B08984330BD03682833197078
:107750000268107E0123184003D1518B1942F8D0E2
:1077600003E0528B181C920890437047036828333B
:107770001970036800201A7E510703D55B8B012026
:107780009B089843704703681868C006400F043888
:1077900043425841C0B270470368187E4007C00F8B
:1077A00070470368187E0123184070470368588BA0
:1077B000C006C00F70470368187E8007C00F70476F
:1077C0000368588B0007C00F704703681A68D20619
:1077D000520F052A02D11A7E9107FCD5283318785A
:1077E000C0B270470368224A30B5934211D0214A93
:1077F000934211D0204A934211D0204A934211D093
:107800001F4A934211D01F4A934230D10E231922AE
:107810000DE0092314220AE00A23152207E00B23B6
:10782000162204E00C23172201E00D231822DCB2FB
:10783000154901209B08A0409B0008605B180320AD
:10784000C021890004405D58E000FF248440A54326
:107850002C1CC0258540281C204358508023DB0168
:107860001A430A4B5A805A7852B2002AFBDB30BDC9
:1078700000080042000C00420010004200140042C8
:1078800000180042001C004200E100E0000C004033
:10789000F8B5041C151C0E1C1F1CFFF7A3FF201CB1
:1078A000FFF747FEB1001C220A4069072368090C54
:1078B0000A431A60226884239375012E1AD1082185
:1078C000012D00D110210C4B79431868C00000F045
:1078D000A3FF236807219A890140D2044903D20CEF
:1078E0000A439A8123680004C20C9889400B400324
:1078F00010439881F8BDC0468C000020F7B5019375
:1079000008AB041C1F780D1C161CFFF777FE201C0B
:10791000FFF768FFBF070C221743C022920336050A
:107920001640C02292022D0423683E43019915405F
:10793000354307221D600A408021236889020A43DB
:107940005A60F7BD70B5041C0E1CFFF74BFF201CDE
:10795000FFF782FE236814221A600D4B71001D6828
:107960002468281C00F058FF0A49061C281C00F057
:1079700053FF7D23FA215843C90000F04DFF301A10
:10798000E668FF23053818409E430643E66070BD55
:107990008C00002040420F000120704708B50368AA
:1079A000014A1B6A984708BD13040000826D436DAD
:1079B0009A4203D0836DC018007D01E0012040424F
:1079C000704710B5041C0069FFF7B3FD0023221CAB
:1079D00063659C32A365A0341360236010BD000072
:1079E000F0B587B001930CAB1B78002502930DAB6B
:1079F0001B78402603930EAB1B78041C04930FAB3B
:107A00001B780F1C0593FA239B008360124B009296
:107A1000083303604560291C321C143003F01CFA43
:107A2000201C6565321CA565291C5C3003F014FA26
:107A3000009A231C9C331D605D6027611A72019AB5
:107A4000201C5A72029A9A72039ADA72049A1A7372
:107A5000059A1A7707B0F0BD58DB000030B585B045
:107A6000041C08A8057809A8007800950190FF205B
:107A700002900390201CFFF7B3FF201C05B030BD1F
:107A8000F023081C18403038434258417047F02317
:107A90001B01194080239B0099420CD0C0239B00FE
:107AA000994206D080235B000520994204D0002033
:107AB00002E0072000E0062070470F23194001294B
:107AC00005D002394B424B410220C01A00E0002091
:107AD00070470000F0B5031C85B00391A433041C6B
